:040000006F00F06E2F
:1000040000000000000000000410000006100000C2
:1000140000000000EC0E00000000000000000000E2
:10002400EC0E0000EC0E00000000000000000000D8
:10003400EC0E000000000000EC0E000000000000C8
:10004400EC0E0000EC0E0000EC0E0000EC0E0000C4
:10005400EC0E0000EC0E0000EC0E0000EC0E0000B4
:10006400EC0E0000EC0E0000EC0E0000EC0E0000A4
:10007400EC0E0000EC0E0000EC0E0000EC0E000094
:10008400EC0E0000EC0E0000EC0E0000EC0E000084
:10009400EC0E0000EC0E0000EC0E0000EC0E000074
:1000A400EC0E0000EC0E0000EC0E0000EC0E000064
:1000B400EC0E0000EC0E0000EC0E0000EC0E000054
:1000C400EC0E0000EC0E0000EC0E0000EC0E000044
:1000D400EC0E0000EC0E000070220000EC0E00009C
:1000E400EC0E0000EC0E0000EC0E0000EC0E000024
:1000F400EC0E0000EC0E0000EC0E0000EC0E000014
:10010400EC0E0000EC0E000000000000EC0E0000FD
:10011400EC0E0000000000000000000000000000E1
:1001240000000000000000000000000000000000CB
:0C013400000000000000000000000000BF
:10014000397101436EC619A0397141536AC866CA34
:1001500062CC5ECE19A0397101535AD056D252D416
:100160004ED64AD826DA22DC06DE3301614082828E
:1001700041114AC026C222C406C68282B24D410144
:10018000024D924C224CB24B4101024B924A224A00
:10019000B2494101024992442244B2404101828065
:1001A0003D432A876373C3029377F700BDEFADE544
:1001B000937606FF3D8ABA960CC34CC30CC74CC756
:1001C0004107E36BD7FE11E28280B306C3408A0683
:1001D0009702000096966780A6002307B700A30643
:1001E000B7002306B700A305B7002305B700A30493
:1001F000B7002304B700A303B7002303B700A3028B
:10020000B7002302B700A301B7002301B700A30082
:10021000B7002300B700828093F5F50F9396850011
:10022000D58D93960501D58D61B7939627009702DA
:10023000000096968682E78086FA9680C1171D8F09
:100240003E96E374C3F8A5B783A7818009671307B7
:1002500007F4B3D7E702C207C183239DF180239C33
:10026000F1808280B7F700E0D843799BD8C303D7E9
:10027000A1813305A7021307803E3356E50281466C
:1002800090CBD4CB98431367070198C39843136767
:10029000170298C3B7F700E0DC43858BE5DF37F73B
:1002A00000E01C43F99B1CC38280B7F700E0D843F1
:1002B000799BD8C303D781813306A702814690CBAF
:1002C000D4CB98431367070198C398431367170269
:1002D00098C3B7F700E0DC43858BE5DF37F700E034
:1002E0001C43F99B1CC38280EFF29FE801112A8412
:1002F000854511651105EF00901F93070020FC82D2
:100300008D473ECCE1473ECE4C08371501401305E2
:100310000580E52A22C223140100231501002316BB
:10032000010023180100A1477C874C00374401409D
:1003300013050480EF00701F854513050480EF004E
:10034000302D056181BDEFF21FE1AE84B289014419
:1003500039A81389140083850400C205C18137457B
:10036000014013050580EF00F0300504CA84635C8A
:100370003401930500043745014013050580EF0063
:10038000703065D9F9B74E8509B5B707002003A7C6
:10039000071F3A959387818C636EF500B75700204D
:1003A0009387078063EAA700B707002023A8A71E4A
:1003B0003A8582807D57EDBF7D57DDBF03A5018261
:1003C00082801C4141677917F98F1CC123200500E9
:1003D000232205002324050023260500B707024039
:1003E000A107630CF504B7070240F107630EF5049B
:1003F000B707024093870703630FF504B70702406E
:10040000938747046302F506B70702409387870581
:100410006303F506B70702409387C7066305F50631
:10042000B7070240938707086307F506B70702403E
:10043000938747096309F5068280370702405C43CA
:1004400093E7F7005CC38280370702405C4393E781
:10045000070F5CC38280B7060240DC4205671307C2
:1004600007F0D98FDCC28280370702405C43BD664B
:10047000D58F5CC38280370702405C43B7060F000C
:10048000D58F5CC38280370702405C43B706F0001B
:10049000D58F5CC38280370702405C43B706000FEC
:1004A000D58F5CC38280370702405C43B70600F0FB
:1004B000D58F5CC351B71C4161773D077D8F9C454B
:1004C0009451D58F9449D58FD449D58F944DD58FDC
:1004D000D44DD58FD451D58F9455D58FD98F1CC17C
:1004E000DC455CC19C411CC5DC415CC5828091C57A
:1004F0001C4193E717001CC182801C41416779179A
:10050000F98F1CC182804CC182809C4593F8F70012
:10051000C18B81C7DC41B3E8F8009C21B9CB03282B
:100520000500014719A05CC905079D4763E1E70481
:100530008547B397E7009621FD8EE397D7FE131604
:100540002700BD46B396C60093C6F6FF33F80601F2
:100550003396C80033680601944513068002E3848D
:10056000C6FC13068004E391C6FC1CC975BF23209A
:1005700005019A219307F00F63F0E7060328450071
:10058000014721A05CC981A005079D4763E4E704FA
:10059000130687008547B397C7009621FD8EE39524
:1005A000D7FE13162700BD46B396C60093C6F6FFC6
:1005B00033F806013396C800336806019045930668
:1005C0008002E301D6FC904593068004E31ED6FA30
:1005D0001CC95DBF23220501828019C20CC982801B
:1005E0004CC98280370700C0B377E5006385E70414
:1005F00037070040638EE70C63900712B70701408E
:10060000DC43135705013D8B131605014182B706E4
:1006100030003378D500630BD80C9316B50063DE39
:10062000060E8D463397E6001347F7FF7D8FB70719
:100630000007D98FF9A0370701405C43544F135787
:10064000B5011D8B1DE7F99B370700FF7D17F98E5C
:1006500089C9131705014183D98F3707FF01798DA8
:10066000C98E37070007D98F370701405CC354CFC5
:10067000828005466305C70209466308C7020D4626
:10068000630BC7021146630EC7021546E312C7FC8F
:1006900093F7F7CF3707E0FF7D17F98E55BFF59B2E
:1006A000370780FF7D17F98E65B7ED9B3707E8FFA9
:1006B0007D17F98E71BFDD9B3707FCFF7D17F98E23
:1006C00041BF93F7F7F33707C0FF7D17F98E49B79E
:1006D000B7070140D84F42059347F5FFF98F99C1FD
:1006E000B367A700370701405CCF8280370700F966
:1006F0007D17F98F3708014083264800758F232224
:10070000E80081C955811375F53F12053315A60020
:10071000C98F370701405CC3828013575501120708
:100720003317E6001347F7FF7D8FB7070007D98F10
:10073000C9BFEFF2FFA3411102C202C402C637F4DF
:10074000FF1F8327447213979701B706003E758FEA
:1007500093C6F7FF13969600B70500016D8E518F73
:10076000860737063E00F18FBD824166F18ED58F38
:10077000D98F23A2F18203578472239EE18003273D
:10078000047223A4E1820327447023A0E1828545FB
:100790001305D003A92B8327447093F7F7F037078D
:1007A0003A10130707706383E71237073A101307ED
:1007B0000770637DF70637073B1013070770638CDC
:1007C000E70A37073D10130707706394E70A85456A
:1007D0002165093DE1777C829304800426C64C00A4
:1007E00037140140130504800D33856793878733E1
:1007F0007C8226C64C00130504C0013B91477C82D5
:10080000930780023EC64C00130504C0FD39F977FA
:100810007C8226C64C0037150140C5398D477C8245
:1008200026C64C0013050440CD31A1A03707321075
:1008300013070770639FE7028545216565339307BA
:1008400000E07C821304800422C64C00B7140140EF
:10085000138504C05D3989677C8222C64C00371538
:10086000014065318D477C8222C64C0013850440CF
:100870006939410105B2E1777C829304800426C680
:100880004C003714014013050480413193070020C8
:100890007C8226C64C00130504C0853991477C82B2
:1008A000930780023EC64C00130504C0B939F9779E
:1008B0007C8226C64C003715014081398D477C82E9
:1008C00026C64C0013050440893165B7E1777C8268
:1008D0009304800426C64C0037140140130504809D
:1008E0002D318967E5177C8226C64C00130504C0AC
:1008F000293991477C82930780023EC64C0013053C
:1009000004C02131F9777C8226C64C00371501409E
:10091000ED3E8D477C8226C64C0013050440F5361B
:1009200089BFEFF2FF8401112A842E894621C20477
:10093000C18093F404FCC204C18068009D24524726
:10094000B7470F0093870724B357F702C207C18345
:100950009306C00363F4F6009307C003DD8C46A042
:100960001620C206C182F99AC206C18216A0832649
:10097000090061661306066A6369D6048606335762
:10098000D702420741838D4663E3E600114785079E
:10099000C207C1831EB05AAC1E2093E717001EA0E9
:1009A0001E20C207C18393F757BF035749008356E0
:1009B000A900558FD98F1EA08357C90003578900FE
:1009C000D98F1EA405616FF0EFFC83556900316675
:1009D0007D166385C50493951600B695139635006C
:1009E000B2963357D702420741839166558F856689
:1009F000FD16F98E99E213671700E176558F4207CD
:100A000041839306C012B387D7029306803EB3C7D3
:100A1000D7028507C207C1831EB0B5BF1396160063
:100A2000B2963357D70242074183D1B791C51E21F1
:100A300093E717001EA182801E21C207C183F99B84
:100A4000C207C1831EA1828091C51E2193E70710B2
:100A50001EA182801E21C207C18393F7F7EFC20750
:100A6000C1831EA1828091C51E2193E707201EA18C
:100A700082801E21C207C18393F7F7DFC207C183BB
:100A80001EA1828091C51E2193E707401EA182808E
:100A90001E21C207C18393F7F7BFC207C1831EA1FE
:100AA00082800EA982800A291375F50F828019C6EB
:100AB00093E51500C205C1810EA9828093F5E50F6B
:100AC000D5BF5A291E2DC207D98F370700017D17C0
:100AD000F98FED8F6384B7000145828005458280E0
:100AE000411102C602C42AC493D7C5013EC6B70746
:100AF0000001FD17FD8DB24799CBA247D1073EC437
:100B0000A2479C43FD8D89C9054541018280C18171
:100B1000A247E1073EC4EDB70145C5BF23A6A182A8
:100B2000828003A7C18285476302F7025C41A1CF9F
:100B30001821935757008546B396E600938707041C
:100B40008A0737E700E0BA9794C382801C310547D3
:100B5000638EE700E1FF14213C21960793F7F70F1E
:100B600037E700E036972300F740C9B714213C214E
:100B7000960793E707F893F7070E37E700E03697F5
:100B80002300F74065B71821935757008546B39661
:100B9000E600938707068A0737E700E0BA9794C311
:100BA0008280B7170240DC43B18B1147638DE702A7
:100BB00021476381E70A99C7B7177A00938707200F
:100BC0001CC13DA0B71702409C43918B99C7B74702
:100BD0000F00938707241CC121A8B7177A009387B9
:100BE00007201CC131A0B7177A00938707201CC1CA
:100BF00037160240584211833D8BB7070020938778
:100C000007003E9718231441B3D6E60054C158425A
:100C100021831D8B3E97182333D7E60018C5584211
:100C20002D831D8BBA979C23B3D7F6005CC5584221
:100C3000634E0708371702405843398393763700CD
:100C400013874180369718231377F70FB3D7E7023E
:100C50001CC98280371702405C435843C166758FB8
:100C6000C983BD8B8907C5466381D7020DEB374722
:100C7000024003270780418B19CB37177A001307EF
:100C80000720B387E7021CC1A5B7C947C5B7371707
:100C90003D0013070790B387E7021CC191BF3717C8
:100CA000024058439316E70063DA060037173D0009
:100CB00013070790B387E7021CC11DBF37177A00DF
:100CC00013070720B387E7021CC11DB714C9828030
:100CD00099C5371702405C4B5D8D48CB8280371732
:100CE00002405C4B1345F5FF7D8D48CB828099C552
:100CF000371702401C4F5D8D08CF828037170240A6
:100D00001C4F1345F5FF7D8D08CF828099C537179D
:100D100002405C4F5D8D48CF8280371702405C4FA8
:100D20001345F5FF7D8D48CF8280EFF26FC401112E
:100D30002A84AE841629FA21F577FD17F58FD98F0D
:100D40001EA95225D6219A25BE25D98ED58F7D770D
:100D50001307379F718FD98F5EA55E29C207C183A4
:100D6000DA2593F7F7CFD98F5EA968001D3DB74705
:100D70000140938707806303F406D2465E24C207CE
:100D8000C18763CF07041397160036979317370070
:100D9000B69798400A07B3D7E70293054006B3D643
:100DA000B70213964600370700107D17F98EB386F9
:100DB000B602958F5A2442074187634F0702920774
:100DC0009387270313074006B3D7E702BD8BD18F64
:100DD000C207C1831EA405616FF0CFBBE24679BF95
:100DE00093971600B69713973700B307D70098402C
:100DF0000607B3D7E70255B7139737001307270342
:100E0000930740063357F7021D8BB367C700C9B776
:100E100091C55E250967D98F5EA582805A25F9772D
:100E2000FD17F98F5EA5828093F7F50F958305472F
:100E3000B315B700638BE7000947638AE7005105E4
:100E400009CA1C41DD8D0CC182803105D5BF410529
:100E5000C5BF1C4193C5F5FFFD8D0CC1828009C63D
:100E60005E29DD8D4EA982805E2993C5F5FFFD8D3B
:100E70004EA9828093F5F51F4EA182804A211375F9
:100E8000F51F82801E21FD8D99C105458280014597
:100E9000828093F7F50F958385463397B60063817B
:100EA000D70289466381D7025E297D8FA18185475C
:100EB000B395B7001E21FD8D11CB99E901458280C4
:100EC0005E257D8FE5B71E297D8FCDB701458280D8
:100ED00005458280A1818547B397B700C207C183CA
:100EE00093C7F7FFC207C1831EA1828001A09701AB
:100EF0000020938121B0174100201301A110179504
:100F000000001305E53A97F5FF1F9385A50F13869B
:100F1000818163FAC5008322050023A055001105D5
:100F20009105E3EAC5FE138581819385818C637702
:100F3000B500232005001105E36DB5FEFD42739059
:100F400002BC8D42739042809302800873900230FD
:100F500097F2FFFF9382420B93E23200739052307C
:100F6000EF10E042971200009382629C739012345B
:100F700073002030EFF2CF9F0D46B7A50000938598
:100F800005BB03A50183EF10E0546FF0AFA0EFF2B3
:100F90002F9E23A8A182F93F6FF0CF9FEFF24F9DC4
:100FA0000111AE862A86B7A50000938505BC0A8587
:100FB000EF30C00F0A85EF30C0131376F50F8A8526
:100FC00003A50183EF100051753705616FF08F9C09
:100FD000EFF20F9A0111AE862A86B7A5000093851D
:100FE00045BB0A85EF30800C0A85EF308010137600
:100FF000F50F8A8503A50183EF10C04DA53F05615C
:101000006FF04F9901A001A0EFF2EF942A89AE8909
:10101000B2840144B705020037650040130505801E
:10102000C1340DC50504896793870771E3D487FE32
:1010300037A50000130585C0EF30C005854537652D
:10104000004013050580053405459DA2854537659B
:10105000004013050580CD3AB705030085053765C7
:10106000004013050580B13C65D90146CA85376546
:10107000004013050580253C2945EFF00FA30144EE
:10108000B7050700938525083765004013050580DF
:101090000D3C0DE50504896793870771E3D287FE50
:1010A00037A50000130545C1EF20D07E8545376583
:1010B000004013050580453A0545DDA8CE85376516
:1010C000004013050580F13AB705070093854508F0
:1010D0003765004013050580ED327DD585453765C0
:1010E000004013050580EFF03F96B7050300850526
:1010F0003765004013050580E93265D90546CA8584
:1011000037650040130505805D320144B7050300D3
:1011100089053765004013050580653215E505042E
:10112000896793870771E3D387FE37A5000013050E
:1011300045C1EF20307685453765004013050580B1
:10114000EFF07F920545ADA0B7050010938505042B
:10115000376500401305058061327DD53765004055
:1011600013050580EFF03F942A89B70503009385A6
:1011700005043765004013050580EFF09F9475D591
:10118000B769004013850980EFF0FF912A848545F7
:1011900013850980EFF01F8F854513850980EFF0D7
:1011A0009F8C2209420441843364240182A00145BA
:1011B0006FE0BFFDEFE23FFA2A89AE89B2840144B5
:1011C000B70502003755004013050540EFF05F9169
:1011D00015C50504896793870771E3D387FE37A593
:1011E0000000130545BFEF20F06A854537550040E4
:1011F00013050540EFF03F8705457DA2854537552E
:10120000004013050540EFF03F84B7050300850556
:101210003755004013050540EFF0BF8A7DD50146E4
:10122000CA853755004013050540EFF05F8801443B
:10123000B70507009385250837550040130505407D
:10124000EFF03F8815E50504896793870771E3D1BF
:1012500087FE37A50000130545BFEF20B063854525
:101260003755004013050540EFF0EFFF05452DAA67
:10127000CE853755004013050540EFF09F820144AD
:10128000B70507009385450837550040130505400D
:10129000EFF03F830DE92945EFE0DFFC05048967A6
:1012A00093870771E3DE87FC37A50000130545BF70
:1012B000EF20505E85453755004013050540EFF09F
:1012C0008FFA0545D5A085453755004013050540E3
:1012D000EFF08FF7B705030085053755004013057C
:1012E0000540EFF00FFE7DD50546CA853755004015
:1012F00013050540EFF0AFFB0144B7050300890576
:101300003755004013050540EFF0AFFB15E5050428
:10131000896793870771E3D287FE37A5000013051D
:1013200045BFEF2030578545375500401305054030
:10133000EFF06FF305458DA8B70500109385050400
:101340003755004013050540EFF08FF975D5375537
:10135000004013050540EFF00FF52A89B70503009B
:10136000938505043755004013050540EFF06FF5F0
:1013700075D5B759004013850940EFF0CFF22A84A4
:10138000854513850940EFF0EFEF8545138509404A
:10139000EFF06FED2209420441843364240182A0FE
:1013A0000545EFE09FF001456FE03FDEEFE2BFDA79
:1013B0002A8AAE89135986009374F60F0144B70543
:1013C00002003765004013050580EFF06FF10DC591
:1013D0000504896793870771E3D387FE37A500006B
:1013E0001305C5C3EF20104B854537650040130535
:1013F0000580EFF04FE769A285453765004013058A
:101400000580EFF06FE40144B705030085053765FB
:10141000004013050580EFF0CFEA0DE5050489676C
:1014200093870771E3D287FE37A50000130585C4B3
:10143000EF20504685453765004013050580EFF0E5
:101440008FE23DAA0146D28537650040130505802D
:10145000EFF0EFE50144B7050700938525083765F0
:10146000004013050580EFF0CFE50DE50504896721
:1014700093870771E3D187FE37A50000130585C464
:10148000EF20504185453765004013050580EFF09A
:101490008FDDFDA0CE853765004013050580EFF098
:1014A0004FE00144B70507009385450837650040C4
:1014B00013050580EFF0EFE00DE5050489679387DC
:1014C0000771E3D187FE37A50000130585C4EF201F
:1014D000703C85453765004013050580EFF0AFD8B7
:1014E00045A0B70500109385050837650040130532
:1014F0000580EFF0EFDE29E10144B7050700938591
:1015000045083765004013050580EFF08FDB39EDA6
:101510000504896793870771E3D187FE37A500002B
:10152000130585C4EF201037854537650040130546
:101530000580EFF04FD3A9A0CA8537650040130599
:101540000580EFF00FD6B70507009385450837658E
:10155000004013050580EFF0CFD675D5A685376519
:10156000004013050580EFF0CFD379B78545376587
:10157000004013050580EFF00FCF0545EFE0FFD2E7
:101580006FE0BFC0EFE23FBD2A8AAE8913598600E3
:101590009374F60F0144B705020037550040130558
:1015A0000540EFF0EFD315C12945EFE0BFCB0504AF
:1015B000896793870771E3D087FE854537550040DB
:1015C00013050540EFF02FCA85A285453755004029
:1015D00013050540EFF04FC7B705030085053755E4
:1015E000004013050540EFF0CFCD7DD50146D285F3
:1015F0003755004013050540EFF06FCB0144B705A8
:101600000700938525083755004013050540EFF086
:101610004FCB0DE50504896793870771E3D187FEFA
:1016200037A50000130585C2EF20D0268545375524
:10163000004013050540EFF00FC3FDA0CE853755E0
:10164000004013050540EFF0CFC50144B705070082
:10165000938545083755004013050540EFF06FC6E8
:101660000DE50504896793870771E3D187FE37A5E8
:101670000000130585C2EF20F02185453755004055
:1016800013050540EFF02FBE45A0B7050010938568
:1016900005083755004013050540EFF06FC429E1F8
:1016A0000144B705070093854508375500401305E9
:1016B0000540EFF00FC139ED050489679387077185
:1016C000E3D187FE37A50000130585C2EF20901CEB
:1016D00085453755004013050540EFF0CFB8A9A068
:1016E000CA853755004013050540EFF08FBBB7059D
:1016F0000700938545083755004013050540EFF076
:101700004FBC75D5A6853755004013050540EFF051
:101710004FB979B785453755004013050540EFF0BF
:101720008FB41545EFE07FB86FE03FA6EFE25FA40E
:1017300001112A8402CA02CC02CE02C202C402C62D
:1017400002C885452145EFF08FDA85453705400011
:10175000EFF0CFDB854537052000EFF02FDB856705
:10176000938707CCFC82F1473ECE8D473ECC4C0898
:1017700037150140130505C0EFE03FD922C22314FD
:101780000100F177FD177C852316010093070040C7
:101790007C879167FC804C00B7640040138504800F
:1017A000EFF02F984C003754004013050440EFF041
:1017B0004F97854513850480EFF04FA785451305A6
:1017C0000440EFF0AFA6854513850480EFF08FABA2
:1017D000854513050440EFF0EFAA05616FE09F9B7C
:1017E000EFE21F9961651305056A893737A5000087
:1017F0001305C5BCEF20100A11641306741281454D
:10180000130500084133130674128145130520089F
:10181000953B13067412814513054008A533130642
:101820007412814513056008B13B1306741281459B
:1018300013058008813B13067412814513050008C7
:10184000B536130674128145130520088536130634
:101850007412814513054008EFF05FB50D6413065F
:101860000420954513050008313B130604209545D7
:1018700013052008013B1306042095451305400875
:10188000113313060420954513056008E539130646
:101890000420954513058008F5311306042095456D
:1018A00013050008EFF09FB01306042095451305BB
:1018B0002008EFF0BFAF130604209545130540083C
:1018C000EFF0DFAE21669945130500086539216602
:1018D0009945130520087D31216699451305400877
:1018E0005531216699451305600869392166994586
:1018F0001305800841392166994513050008EFF06A
:10190000FFAA2166994513052008EFF03FAA21663A
:10191000994513054008EFF07FA937A5000013058E
:1019200005BEEF2020776FE0FF86EFE2DF8279715E
:101930000545EFF0AF9EEF00302AEFE0FF907165B4
:1019400013050520EFE05F9AEF005048EF00B03B31
:101950000546930500043744004013050440EFF0AA
:101960000FD013050440EFF08FE2231B010083A585
:10197000818037A50000130585CBEF20405FEFE0A5
:10198000FFA3AA8537A50000130585CCEF20205EB4
:10199000813D014431A82286B7A50000938585CDFD
:1019A0002808EF20A070A2852808EFF02FDF05049B
:1019B0009947E3D287FE01468146B7A5000093858B
:1019C000C5CD6808EF20806E054431A82286B7A5F2
:1019D0000000938585CE2808EF20406D6C0828080C
:1019E000EFF00FDF1D0493071003E3D187FE0146DC
:1019F0008146B7A500009385C5CE6808EF20006B2F
:101A0000014431A82286B7A50000938585CE280819
:101A1000EF20C0696C082808EFF08FDB1D049307E6
:101A20002003E3D187FE01468146B7A500009385D8
:101A300085CF6808EF208067094431A82286B7A5C2
:101A40000000938585CE2808EF2040666C082808A2
:101A5000EFF00FD81D0493073003E3D187FE8545CF
:101A60001145EFF0CFA885452145EFF04FA8E97764
:101A7000938717907C8441494AC88D4426C62C0020
:101A80003714014013050480EFE03FA8FD777C8404
:101A90004AC826C62C00130504C0EFE01FA78144E6
:101AA00035A981443DA91317290093874184BA972A
:101AB0008843EF10403C2A86AE86B7A50000938588
:101AC00045D06808EF20805E2286B7A50000938588
:101AD00085CE2808EF20805D6C082808EFF04FCFF6
:101AE00005091D0493071003E3DF87FAB7A7000079
:101AF00083A547CA03A54184EF1080066349A00E61
:101B00001307000023A2E186B7A7000083A547CAF8
:101B100093874184C843EF10A0046346A0109387C5
:101B2000418613070000D8C3B7A7000083A547CAA2
:101B3000938741848847EF10A0026343A0129387E4
:101B400041861307000098C7B7A7000083A547CABE
:101B500093874184C847EF10A0006340A014938787
:101B6000418613070000D8C7B7A7000083A547CA5E
:101B700093874184884BEF00B07E634DA014938718
:101B800041861307000098CBB7A7000083A547CA7A
:101B900093874184C84BEF00B07C634AA0169387BB
:101BA000418613070000D8CBB7A7000083A547CA1A
:101BB00093874184884FEF00B07A6347A0189387DA
:101BC00041861307000098CFB7A7000083A547CA36
:101BD00093874184C84FEF00B0786344A01A93877D
:101BE000418613070000D8CF0144014939A41306E8
:101BF0006101914513050008EFF0CFDBA883C167B1
:101C0000938777DEE3E2A7F0EF00906EB7A70000BE
:101C100003A607CB83A647CBEF005022EF1060301E
:101C200023A2A186D5B513066101914513052008AD
:101C3000EFF04FD8A883C167938777DEE3E6A7EE7E
:101C4000EF00106BB7A7000003A607CB83A647CB16
:101C5000EF00D01EEF10E02C93874186C8C3E9B592
:101C600013066101914513054008EFF0AFD4A88336
:101C7000C167938777DEE3E9A7ECEF007067B7A74A
:101C8000000003A607CB83A647CBEF00301BEF1065
:101C900040299387418688C745BD13066101914558
:101CA00013056008EFF00FD1A883C167938777DE33
:101CB000E3ECA7EAEF00D063B7A7000003A607CBC9
:101CC00083A647CBEF009017EF10A025938741869E
:101CD000C8C759BD13066101914513058008EFF08F
:101CE0006FCDA883C167938777DEE3EFA7E8EF00A6
:101CF0003060B7A7000003A607CB83A647CBEF0051
:101D0000F013EF1000229387418688CBB5BD1306F0
:101D10006101914513050008EFF00FAFA883C1677B
:101D2000938777DEE3E2A7E8EF00905CB7A70000B7
:101D300003A607CB83A647CBEF005010EF10601E21
:101D400093874186C8CB8DB5130661019145130574
:101D50002008EFF06FABA883C167938777DEE3E5D8
:101D6000A7E6EF00F058B7A7000003A607CB83A6AD
:101D700047CBEF00B00CEF10C01A9387418688CF95
:101D8000A1B513066101914513054008EFF0CFA7F7
:101D9000A883C167938777DEE3E8A7E4EF00505597
:101DA000B7A7000003A607CB83A647CBEF00100917
:101DB000EF10201793874186C8CF3DB51317290030
:101DC00093874186BA978843EF10E00A2A86AE8649
:101DD000B7A500009385C5CE6808EF20202D228688
:101DE000B7A50000938585CE2808EF20202C6C082D
:101DF0002808EFF0EF9D05091D0493072003E3DF9A
:101E000087FA138941849389418683A509000325B4
:101E10000900EF00505D1384418A08C083A5490082
:101E200003254900EF00305C48C083A589000325E5
:101E30008900EF00505B08C483A5C9000325C900D1
:101E4000EF00705A48C483A5090103250901EF007A
:101E5000905908C883A5490103254901EF00B058EE
:101E600048C883A5890103258901EF00D05708CC14
:101E700083A5C9010325C901EF00F05648CC0944E8
:101E8000014981A0131729009387418ABA97884393
:101E9000EF00707E2A86AE86B7A50000938505D137
:101EA0006808EF20A0202286B7A50000938585CE84
:101EB0002808EF20A01F6C082808EFF06F91050993
:101EC0001D0493073003E3DF87FA83C7418399C773
:101ED00005476385E71A0D47638AE726E39304BC49
:101EE0008544268685453715014013050580EFE0BA
:101EF000CFEE0545EFE06FBB130661018945130581
:101F00000008EFF02FAB05E1A883EF00703EB7A704
:101F1000000003A687CA83A6C7CAEF002072EF108D
:101F2000400023A2A18413066101894513052008FE
:101F3000EFF04FA80DE1A883EF00903BB7A700009A
:101F400003A687CA83A6C7CAEF00406FEF00707D63
:101F500093874184C8C3130661018945130540086E
:101F6000EFF04FA50DE1A883EF009038B7A7000070
:101F700003A687CA83A6C7CAEF00406CEF00707A39
:101F80009387418488C7130661018945130560085A
:101F9000EFF04FA20DE1A883EF009035B7A7000046
:101FA00003A687CA83A6C7CAEF004069EF0070770F
:101FB00093874184C8C713066101894513058008CA
:101FC000EFF04F9F0DE1A883EF009032B7A700001C
:101FD00003A687CA83A6C7CAEF004066EF007074E5
:101FE0009387418488CB1306610189451305000856
:101FF000EFF08F810DE1A883EF00902FB7A70000CD
:1020000003A687CA83A6C7CAEF004063EF007071BA
:1020100093874184C8CB13066101894513052008C5
:10202000EFE09FFE0DE1A883EF00902CB7A7000022
:1020300003A687CA83A6C7CAEF004060EF00706E90
:102040009387418488CF13066101894513054008B1
:10205000EFE09FFB0DE1A883EF009029B7A70000F8
:1020600003A687CA83A6C7CAEF00405DEF00706B66
:1020700093874184C8CF05440149ADB49387418318
:102080009C332147E36CF7E48A0729671307C7C528
:10209000BA979C43828793874183B0238565371520
:1020A0000140130505C0EFE04FD30DBD9387418379
:1020B000B023896537150140130505C0EFE0EFD166
:1020C00031BD93874183B0239165371501401305D6
:1020D00005C0EFE08FD019B593874183B023A16588
:1020E00037150140130505C0EFE02FCFC5BB93871F
:1020F0004183B02393050010371501401305058077
:10210000EFE0AFCDE1BB93874183B0238565938535
:1021100005803715014013050580EFE00FCC7DBB2E
:1021200093874183B02385653715014013050580EA
:10213000EFE0AFCA65B393874183B023A16537153C
:10214000014013050580EFE04FC949BB93874183E8
:102150009C3321476366F7028A072967130707C87C
:10216000BA979C43828703A64188930720033306CE
:10217000F602420641829D4513050008EFF08FC02C
:10218000138741831C33FD17342338331207BA9663
:102190001397270093874188BA9794C381B3938795
:1021A0004188D043930720033306F602420641825A
:1021B0009D4513052008EFF0EFBCD9B79387418800
:1021C0009047930720033306F602420641829D455D
:1021D00013054008EFF00FBB65B793874188D047E0
:1021E000930720033306F602420641829D451305FC
:1021F0006008EFF02FB969B793874188904B930738
:1022000020033306F602420641829D4513058008ED
:10221000EFF04FB7B5B793874188D04B93072003B2
:102220003306F602420641829D4513050008EFF091
:10223000EF97B9B793874188904F930720033306F0
:10224000F602420641829D4513050008EFF00F9605
:1022500005BF93874188D04F930720033306F602CA
:10226000420641829D4513050008EFF02F9409BFF7
:10227000011122CE26CC02C202C42316010093050E
:1022800040423745004013050540EFE09FC011E58F
:102290007244E2440561730020308145B704024076
:1022A0001385C406EFE0AFA4138441831C403EC2F3
:1022B0005C403EC41E247C8629464C0037450140C4
:1022C00013050580012C232004002312040002C200
:1022D00002C4231601009305404237440040130511
:1022E0000440EFE03FBFA9451385C406EFE0AFA16E
:1022F00085451385C406EFE08F9F13050440EFE08A
:10230000FFB779B7B7270240094798C3374702405C
:102310008327078093E707012320F780B717024040
:10232000D843D8C3D843D8C3D84313670740D8C3CA
:10233000D843B706C1FFFD16758FD8C3D843B7067B
:102340002800558FD8C39843B7060001558F98C30E
:10235000B71702409C4313976700E35B07FEB7176C
:102360000240D843719BD8C3D84313672700D8C312
:10237000B7170240DC43B18B2147E39BE7FE828025
:10238000EFD21FDFEFE0EFBAB53F6FD0BFE0EFD283
:102390003FDEB717024098431367170098C3D8432E
:1023A000B706FF08758FD8C39843B706F7FEED163A
:1023B000758F98C39843B706FCFFFD16758F98C3B9
:1023C000D843B70601FFFD16758FD8C337079F00A6
:1023D00098C77D376FD01FDCB7170240DC43B18B45
:1023E00011476380E70421476386E70681CBB7176F
:1023F0007A009387072023A4F18015A8B71702401D
:102400009C43918B81CBB7470F009387072423A46C
:10241000F18031A8B7177A009387072023A4F180B1
:1024200039A0B7177A009387072023A4F180B71744
:102430000240DC43918313F7F700B707002093872E
:102440000701BA9794239387818098433357D70025
:1024500098C38280371702405C435843C166758F2A
:10246000C983BD8B8907C5466382D7021DEB3747F9
:10247000024003270780418B01CF37177A001307EB
:102480000720B387E70223A4F18055B7C947F9BFF6
:1024900037173D0013070790B387E70223A4F180A5
:1024A00079B73717024058439316E70063DB0600FD
:1024B00037173D0013070790B387E70223A4F18085
:1024C000BDB737177A0013070720B387E70223A4A5
:1024D000F180B1BFEFD23FC82A84AE8932898144EE
:1024E00011A0850463DF2401B38799008C23228522
:1024F000EFE05F98930500082285EFE0BF987DD953
:10250000CDB76FD09FC8EFD2BFC6797102D202D4C7
:1025100002D602CA02CC02CE02D002C602C885454B
:1025200037050200EFE08FFE85451145EFE02FFCF7
:1025300091472312F1028D473ED4E1473ED64C101D
:102540003714014013050480EFD03FFCA14723124C
:10255000F10291473ED64C1013050480EFD0FFFAEC
:10256000F167938707203ECA231C0100231D010049
:10257000231E010023100102B147FC874C08374499
:10258000004013050440EFE04FFA930760035C86B8
:1025900085473EC80947D8865C876800EFE06FD85A
:1025A0008545370502401305C506EFD05FF40546A3
:1025B0009305404213050440EFE01F87854513054E
:1025C0000440EFE0FF8445616FD0DFBCEFD25FBA1B
:1025D000797102C202C402C602C802CA02CC02CE8B
:1025E00002D002D202D402D685450545EFE04FEE77
:1025F00002CA930700083ECC02CE02D002D28D67F9
:102600003ED402D6370402401305C406EFD07FDB68
:10261000B7470040938747403EC2938741833EC4FB
:1026200002C613854183EF10D02C2AC84C00130535
:10263000C406EFD05FE845616FD0DFB539714AD885
:1026400013D945014ED652D456D29399C50006DE11
:1026500022DC26DA5AD05ECE1379F97F2A8A93D902
:10266000C90093DAF501630D090E9307F07F630645
:10267000F9181354D5018E09B36934013704800069
:1026800033E4890093143500130919C08149814B43
:1026900013D74601139AC6001377F77FB285135AF2
:1026A000CA0013DBF601630B07109307F07F630387
:1026B000F7049357D6010E0A33EA4701130717C0F0
:1026C000B7078000B367FA00931536003A9981483E
:1026D00033C76A01BD463A851308190063E8361707
:1026E000177600001306C6638A09B29983A609000B
:1026F000B2968286B367CA001309F97F63990712FD
:1027000093E9290081458948E1B701479307F07FA4
:102710003704080081443204D20731807E075D8C83
:10272000598CA285F250625426854259D254B2592E
:10273000225A925A025BF24B216182805A853E8472
:10274000AE84C68B8947638DFB0E8D47E38FFBFA02
:1027500085472A87639CFB3881470144814465BFD4
:1027600033E4A90061C036C632C4638B092A4E85A2
:10277000EF00D0112246B246AA87130755FF7544D1
:10278000938487FF198CB399990033548A0033647A
:102790003401B3149A0013D746011309D0C0139A19
:1027A000C6001377F77F3309F9408149814BB28521
:1027B000135ACA0013DBF601E31907EEB367CA0028
:1027C000B1C7630F0A22528532C4EF00300C224693
:1027D0002A87930655FFF547930587FF958F331A90
:1027E000BA00B357F600B3E74701B315B600330993
:1027F000E9401309D9C08148E1BD33E4A90001ECE7
:10280000A14981441309F07F894B59B593E9190017
:102810008145854875BD4E84AA84B1491309F07F6E
:102820008D4BBDB5914981440149854B95B593E9DF
:102830003900D2878D4869BD89475685E397FBF0FB
:102840002A879307F07F01448144F1B5C16E138656
:10285000FEFF93D6040113DE0501F18CF18D338662
:1028600095023383B6029358060133059E021A95EA
:10287000AA98B382C60363F36800F692C16F13830C
:10288000FFFF33F5670093D30701B3F76800C20772
:10289000337366003E933306950293D80801B387DD
:1028A000A602135F0601B3849302BE94FA94B38E1A
:1028B000760263F3F400FE9E416A9307FAFF935F8A
:1028C0000401B376F400B3F9F4007D8EC180338443
:1028D000D502C209338FD401B299CE98B307DE0274
:1028E000935E0401B385BF02AE97BE9E330EFE0316
:1028F00063F3BE00529EC1679385F7FF33F6BE00B7
:102900006D8C4206229693DE0E01B305D502769EAB
:102910003385AF0213D40501B386D302AA96A296DB
:10292000B38FF30363F3A600BE9F41657D15B3F734
:10293000A600C2076D8DAA97B3855800B3B93501BB
:10294000FA97B2953384370133B6C500B30EC4018C
:102950003385CE0033343401B3B7E701C18F33BEC2
:10296000CE0113D406013336C5003E943366CE0043
:102970009394950032947E94B3E4640026049356B5
:102980007501B3349000DD8193179500CD8C558C83
:10299000DD8C9317740063DB070093D714008588E0
:1029A0009316F401DD8CD58C058042899307F93F9D
:1029B0006357F00893F6740081CE93F6F400114645
:1029C0006388C60093864400B3B496002694B68408
:1029D0009316740063D80600B70700FFFD177D8CBF
:1029E000930709409306E07F63CDF60E93D634003B
:1029F0009314D4012604D58C318093F7F77F21BB43
:102A0000328532C4612593065501F147130705024B
:102A10002246E3D2D7DC6115B317A6008145C1BBBE
:102A2000B52513075501F145930705022246B24625
:102A3000E3D7E5D461153314AA008144A9BB8546C8
:102A40009D8EB1E71309E941B3972401B3D4D400B3
:102A500033192401B337F000B3649900DD8C93F788
:102A60007400B356D40081CF93F7F4001146638805
:102A7000C70093874400B3B49700A696BE8493978B
:102A8000860063D8070485470144814469B1130671
:102A90008003E343D6CC7D46E356D6FA0556B3070A
:102AA000F640930500023356F4006387B60013091D
:102AB000E943B3172401DD8CB3349000D18C93F635
:102AC0007400014499CA93F7F40011468146E392D9
:102AD000C7FA139496003180F6068D80D58C814715
:102AE0001DB99307F07F0144814435B142897DBD12
:102AF000411106C622C426C205CD9357F541B3C481
:102B0000A7009D8C2A84268551239306E041898E57
:102B1000A9477D8093F6F67F63CDA7022D47098FE5
:102B2000B3D7E4005505B207B394A400B18329A03C
:102B30000144814681478144B207D206B1837E04B5
:102B4000D58FC18FB24022442685BE859244410173
:102B500082805515B397A400B207B1838144E9BFC1
:102B600093567501B7078000FD1713D6750193F6CC
:102B7000F60F1308F00FB3F8A7001357F501ED8F08
:102B80001376F60FFD8163810603630C06018DE267
:102B900011E2B1C3638E08026305B70405451DE762
:102BA0008280F5D779558280E39E08FE6309D602BC
:102BB00011E2EDD7E314B7FEE342D6FE63C7C600C9
:102BC000E3EE17FD0145E3FDF8FC01E77D5582804A
:102BD000F5DD054582800145E39208FC8280F9DB42
:102BE000D1B78146E1BF797122D4135475014ECE1D
:102BF00052CC9319950006D626D24AD056CA5AC846
:102C00001374F40F93D99900135AF50169C493070B
:102C1000F00F6308F40E9397390037070004B3E907
:102C2000E700130414F88144014B13D77501939AFC
:102C300095001377F70F93DA9A0013D9F50145CF72
:102C40009307F00F630CF7028E0A130717F8B70704
:102C50000004B3EAFA003A94014633452A01BD471D
:102C6000AA869305140063E09710177700001307F6
:102C7000270F8A04BA949C40BA9782871304F40FF2
:102C800063960A0C93E424000946C1BF014513076B
:102C9000F00FB7074000B2502254A6075E07A58385
:102CA0007E05D98F92540259F249624AD24A424B68
:102CB0005D8D45618280CA86D689328B8947630FD4
:102CC000FB088D47E304FBFC854736856310FB1A40
:102CD00001478147C9B7639D090413D77501939ACA
:102CE00095001377F70F91440144054B93DA9A004E
:102CF00013D9F50131F7639D0A0093E414000546EA
:102D0000A9BF63920902A1441304F00F094B31BF1C
:102D10005685AD2E9307B5FF098CB39AFA001304BC
:102D2000A4F801461DBFB1441304F00F0D4BF5BDCF
:102D30004E852EC6A12E9307B5FF1304A0F8B399B4
:102D4000F900098C8144014BB245C5B593E43400C8
:102D50000D4621B78947D286E315FBF63685130762
:102D6000F00F81470DBF41639306F3FF13D60901AE
:102D700093D80A01B3F7D900B3FADA0033885703BE
:102D8000B389F80213570801B30A5603D6994E9730
:102D900033061603637357011A96C167FD17B3769E
:102DA000F7003378F800C206C296939966009357ED
:102DB0000701B3393001E982B2979A07B3E6D90027
:102DC000B3E9D7009397490063D9070013D71900D7
:102DD00093F71900B369F7002E841307F4076350C3
:102DE000E00493F7790099C793F7F900914663835C
:102DF000D70091099397490063D90700B70700F8F6
:102E0000FD17B3F9F900130704089307E00F63CB2C
:102E1000E70493976900A5831377F70FADBD854746
:102E2000B386E74011C76D4601478147E345D6E6C3
:102E30001307E4093397E9003337E000B3D7D9002B
:102E4000D98F13F7770019C713F7F700914663037B
:102E5000D700910713975700634C07009A07A58383
:102E6000014715BD1307F00F814735B52E84B5B75F
:102E7000054781470DB5135775011377F70F4111BA
:102E80009307170022C426C21314950006C693F7B1
:102E9000E70F25809354F50185C793573400130736
:102EA00007387604B2075207B1831395F401D98F1E
:102EB000C98FB240228522449244BE85410182805E
:102EC00005EB39C42285D922A94763C6A7042D473B
:102ED000098F930755013357E4003314F400931717
:102EE000C70013079038098FB1831377F77F5DBF51
:102EF00001CC13573400B7070800D98FB207760406
:102F0000B1831307F07F79BF1307F07F814759BF63
:102F10000147814741BF130755FF3317E4000144C0
:102F20007DBF93D645019397C50093F6F67FB18395
:102F3000138616008E071357D5011376E67FFD81A1
:102F40005D8F9318350035CE138806C89307E00FC0
:102F500063DD07018147139597009306F00FDE06A6
:102F60002581FE05558D4D8D82806355000B93178D
:102F700065000E07B337F000D98F93D8D801B3E7B7
:102F8000170113F777006301071013F7F700914655
:102F90006303D7009107370700047D8F75C71307B8
:102FA00018001306F00F9376F70FE305C7FA9A0798
:102FB000A58313959700DE062581FE05558D4D8D61
:102FC0008280B367170199EE85CF95479A07A5834D
:102FD0001395970093F6F60FDE062581FE05558DB5
:102FE0004D8D8280A5DBB7074000139597009306AF
:102FF000F00FDE0681452581FE05558D4D8D8280C1
:103000008147139597008146DE062581FE05558D83
:103010004D8D8280A5576348F804F9473706800034
:10302000B38707417D45598E6351F50479573307BE
:103030000741130500023357E6006388A700938613
:1030400026CAB316D600B3E8D800B3371001D98F1B
:1030500013F77700014815FB139757008546E3489F
:1030600007F48146A5B781468DB7938626C8339766
:10307000D8003337E000B316D600B3D8F800B367F2
:10308000D700B3E7F800E9B7C28689B7C167637EA6
:10309000F5029307F00F1307000263ECA700977780
:1030A00000009387E7CFAA9703C507003305A74021
:1030B0008280218197770000938787CEAA9703C5E6
:1030C000070061473305A7408280B7070001636EA0
:1030D000F500618197770000938787CCAA9703C595
:1030E000070021473305A740828041819777000080
:1030F000938707CBAA9703C5070041473305A7402D
:103100008280797122D44AD052CC56CA5AC806D687
:1031100026D24ECE3A8AAE8A32843689428B014715
:1031200063580600370700803344C7001307D002F6
:103130002380E70093F4F8FD930760048D466388CD
:10314000F4009307500489466393F4000509DA8775
:103150009308C100130881004A87D6852286EF2094
:10316000400F93077004AA896396F400137A1A003B
:10317000630A0A0493076004338A29016397F402FF
:1031800003C7090093070003631EF7000146814649
:103190005685A285EF50B03A11C58547338927413E
:1031A00023202B0183270B003E9A0146814656853A
:1031B000A285EF50D03811E152C613070003B24781
:1031C00063E24703B2474257B2502254B3873741B4
:1031D0001CC34E8592540259F249624AD24A424B6C
:1031E000456182809386170036C62380E700C1BF01
:1031F0002300C500130725009307B00263D605001E
:10320000B305B0409307D002A300F500A54763DAE9
:10321000B70441119307F100BE8829481303300613
:10322000B3E605031386F7FF93860603A38FD7FE45
:10323000B3C60503634DB30093860603F917A30FC6
:10324000D6FE63E917013305A74041018280B287AA
:10325000B685F9B7850783C6F7FF0507A30FD7FE25
:10326000CDB793070003130745009385050323019A
:10327000F500A301B5003305A740828019713ACE4D
:1032800086DEA2DCA6DA2E84CAD8CED6D2D4B689FF
:10329000DAD0DECEE2CC3289D6D2E6CAEAC8EEC6B1
:1032A000AA84EF30206F832B05005E85EF007064E9
:1032B000032B0400724702DC93760B102A8C034A1E
:1032C00084011C43F1CA9386470014C39C43081031
:1032D00098433AD0D8433AD298473AD4DC473ED6BE
:1032E000EF60606728C46CC4832CC40417770000A7
:1032F000130747BB832A8404032D0700832D47004F
:1033000093971C0085836A86EE865685BE853ECEE1
:10331000EF60A03341EDF2476A86EE865685BE85A2
:10332000EF5070336354A008014681465685E68508
:10333000EF507032635605009307D002A301F404E6
:1033400093077004977A0000938A4AB663F64701A0
:10335000977A0000938ACAB5137BBBFF8D47232061
:1033600064011CC8014B4E87CA867018A285268549
:10337000C12EFD5C631E95157D55F6506654D654DE
:103380004659B659265A965A065BF64B664CD64CA9
:10339000464DB64D096182809D07E19B938687006B
:1033A00014C39843DC4338C47CC43DBF5686E686CC
:1033B0005685E685EF60602911CD93077004977AF2
:1033C0000000938A2AAFE3F947F9977A0000938ABD
:1033D000AAAE59B75C407D57137DFA0D6395E70897
:1033E00099475CC0544013670B403C18D6853EC0DB
:1033F00018C09307310302C2D288130841036686BE
:103400002685EFF01FD093077004AA8AD255631B5C
:10341000FD00F55763C5F5005C4063D8B708791A1D
:10342000137AFA0F9307500663E64705FD15528697
:10343000130504052EDAEFF0BFDB625785462A8BB1
:10344000B307A7001CC863C5E6001840058B19C365
:1034500085071CC883473103E38707F09307D00231
:10346000A301F40409B713077004E31DEDF6BDFBD7
:10347000854785BF93076006631BFA025C40635B68
:10348000B0000CC881E71840058B09CF8507AE97BF
:103490001CC809A889E718408546058B19C393867F
:1034A000270014C82CCC014B75B7130A7006E257DD
:1034B00063C9F5001C400CC8858BEDD793871500B8
:1034C000C1BF05476344B00009470D8FBA97C9B71C
:1034D0001C4013F7074015E314485686CA85268515
:1034E0008299E30B95E91C40898B63960724F25778
:1034F0004844E354F5E83E8549B513075006637B1D
:10350000471928446C4401468146EF50500339E97D
:103510008546177600001306669ACA852685829925
:10352000E30C95E55257E2576345F7001C40858B45
:10353000DDDBE2865E86CA8526858299FD57E30D2E
:10354000F5E2014A930AA4017D5BE257FD17E35CB3
:10355000FAF885465686CA8526858299E30E65E186
:10356000050AE5B7D2576346F00685461776000090
:103570001306C694CA8526858299E30F95DFD25734
:103580006257D98F81E71C40858BB1DFE2865E866A
:10359000CA8526858299FD57E300F5DE014A130BA3
:1035A000A401FD5BD257B307F040634BFA00E2562B
:1035B0005686CA8526858299FD57E316F5F26DBBBE
:1035C00085465A86CA8526858299E30775DB050AF2
:1035D000D1BF3C4C625A63D347013E8A635A4001D3
:1035E000D2865686CA8526858299FD57E306F5D888
:1035F000814C130DA401FD5D09A885466A86CA8524
:1036000026858299E30AB5D7850C032B8405D287DA
:1036100063530A008147B307FB40E3C0FCFE5257E7
:10362000E257634DF7021C40858B8DEBE2575257F2
:10363000338AE7406344EB00338A6741635B4001B0
:10364000D28633866A01CA8526858299FD57E305AD
:10365000F5D2814A130BA401FD5B15A0E2865E86BC
:10366000CA8526858299FD57E312F5FC31B385465C
:103670005A86CA8526858299E30075D1850A5257F4
:10368000E257998F528763530A000147998FE3C02D
:10369000FAFE91BDE25605476344D700858BB5C756
:1036A00085465686CA85268582997D5AE30645CD8C
:1036B000E2865E86CA8526858299E30F45CB28443B
:1036C0006C4401468146EF5080671DC9E25613865F
:1036D0001A00CA85FD1626858299E30F45C9DA8648
:1036E00013060405F9B585465686CA85268582994E
:1036F000E30475C9050AE257FD17E346FAFEC5B7AC
:10370000014A930AA401FD5BFDB785465686CA852A
:1037100026858299E31595FD85B185465686CA852D
:1037200026858299E30A65C5050A5C447257998F1C
:10373000E345FAFE6DBB014A930A94017D5BF5B740
:10374000797156CA9C49BA8A984522D426D24ECE5F
:1037500052CC06D64AD05AC85EC6AA892E84B284F4
:10376000368A63D3E700BA879CC00347340419C381
:1037700085079CC01C4093F7070281C79C408907BE
:103780009CC00329040013796900631A0900130B14
:103790009401FD5B5C449840998F634CF9041C4094
:1037A0008346340493F70702B336D000A5EB130623
:1037B0003404D2854E85829AFD576303F5041C407C
:1037C00011469840998B544481446397C700B38451
:1037D000E64063D3040081441C4418486354F70056
:1037E000998FBE94014969047D5B63982405014566
:1037F00009A885465A86D2854E85829A631E750130
:103800007D55B250225492540259F249624AD24A2A
:10381000424BB24B456182800509ADBF3307D400EE
:1038200013060003A301C70403475404938716003B
:10383000A2978906A381E7049DBF85462286D2858B
:103840004E85829AE30E65FB050945B7797122D44E
:1038500026D24AD04ECE06D652CC56CA5AC8B689BF
:1038600083C68501930790063289AA842E84138625
:103870003504638DF60263E2D706930780056389FA
:10388000F61863EDD7006382062293073004638F36
:10389000F60A930A24042301D404D1A09307300626
:1038A0006386F60A93074006E395F6FE1C4008433C
:1038B00093F6070893054500CDC61C410CC363D899
:1038C00007001307D002B307F040A301E404976692
:1038D00000009386E65E294775A893070007638575
:1038E000F61663E5D7029307E006638CF618930794
:1038F000F006E390F6FA0C401C4313F80508138514
:1039000047006308080608C39C4395A8930750071F
:10391000E383F6FE93078007638CF6129307300764
:10392000E399F6F61C43D04181459386470014C3C2
:1039300083AA07005685EF30801B01C5330555412A
:1039400048C05C401CC8A301040471A81C43930A2E
:103950002404938647009C4314C32301F404854741
:10396000D5B793F607041C410CC3B1DAC207C1876F
:10397000B9B793F5050408C3C1D983D70700130766
:10398000F0066388E60E9766000093866653294723
:10399000A30104044C400CC463C5050008406D99A4
:1039A00008C099E3B28A91CDB28AB3F5E702FD1A55
:1039B000B69583C505002380BA00B3D5E70263F04E
:1039C000E70CA147631EF7001C40858B91CB584044
:1039D0001C4863C7E70093070003A38FFAFEFD1A94
:1039E0003306564110C84E87CA867000A2852685C8
:1039F000EFF01FD57D5A631E450B7D55B250225402
:103A000092540259F249624AD24A424B456182803D
:103A1000A382D504976600009386864A0C4008432B
:103A200013F805081C411105630D080208C313F7BC
:103A3000150001C793E505020CC04147B1FB0C40DE
:103A400093F5F5FD0CC0A9B79C4193E707029CC113
:103A500093078007A302F4049766000093868647C5
:103A600075BF13F8050408C3E30308FCC207C1834C
:103A70007DBF976600009386A644214711BFAE879D
:103A80002DB794411C43CC4913F806081385470011
:103A90006306080008C39C438CC301A808C393F6BF
:103AA00006049C43F5DA2390B70023280400B28A69
:103AB0001DBF14485686CA8526858299E30F45F3B3
:103AC0001C40898B8DE7B2474844E359F5F23E85A7
:103AD00035B785465686CA8526858299E30F65F1F6
:103AE000050A5C443247998FE345FAFEE9BF014A73
:103AF000930A94017D5BF5B79C451D71A2CCCEC69F
:103B0000DAC066DA86CEB28CA6CACAC8D2C4D6C219
:103B10005EDE62DC6AD86ED61386F7FF1307C01527
:103B2000368BAA892E8481466377C700938637EA4D
:103B30009307D0159CC51C40930AC401D68493E713
:103B400007781CC00149814D014C014A014D814B50
:103B500013069004130800708548930E0040094333
:103B6000130E50061D4F18441DCB83A70C0083C7AE
:103B70000700638BC7126368F60C9305900363E438
:103B8000F50A9305100363FBB7149305D002638312
:103B9000B71663E3F5041307B002638DE7146306F9
:103BA0000D001C4093F7F7EF1CC0FD1D854763EB2C
:103BB000B72163ED9A1E0549F64066444A85D6440E
:103BC0004649B649264A964A064BF25B625CD25C8D
:103BD000425DB25D256182809305E002638FB71478
:103BE00093050003E39DB7FA0C4013F505107DC55E
:103BF00093F5F5F70CC0050D81C60507FD1618C431
:103C00001C44FD171CC41C4885071CC883A74C0016
:103C1000FD1723A2FC006356F01683A70C0085074E
:103C200023A0FC0089B7130750046382E71213072F
:103C30006004638BE70E13071004E392E7F6E3904A
:103C40001DF7894D65A06384C7116361FE041307E6
:103C50004005638FE70C6364F7021307E004E39009
:103C6000E7F463910D0A63110D0A1840937507700C
:103C7000639C05091377F78718C0854D85A813073E
:103C800090056389E7041307100645BF1307E00694
:103C9000E389E7FC6368F702130760066386E708B9
:103CA00013079006E39DE7EE63190906E31B0DEE8B
:103CB000184093750770E39A05EF1377F78718C0DC
:103CC00005492DA0130740076384E70613079007F3
:103CD000E397E7ECE315E9ED214909A833872D01C6
:103CE000E31F07EA18401377F7E718C02380F400B2
:103CF000850439B7184093750708E38205EA1377FE
:103D0000F7F7E5B7638D6D06630519011147E318F1
:103D1000E9E805091379F90FD1BF1307D9FF137724
:103D2000D70FE31E07E6F5B7E31B69E60D497DBF34
:103D30001947E316E9E61D4955BF1840937507205A
:103D4000E38F05E41377F7D718C0EA8B45B718401F
:103D5000937507506388D50193750740E38105E4A7
:103D6000E3050DE49375072081E5330A7D41268C38
:103D70001377F7871367071818C0014D85BF8D4D5E
:103D8000B5B783270418E6854E8536C68297B246B6
:103D900013069004130800708548930E00400943F1
:103DA000130E50061D4FE30005DCD5BBFD14832721
:103DB000C41783C5040066864E8582971C48FD178C
:103DC0001CC8C5BB9307F9FF19476366F70289470B
:103DD000A68D63F12709330799401377F70F8D46B6
:103DE000B387ED0093F7F70F63ECF60275191379BB
:103DF000F90FB38424411C4013F7071045C393F710
:103E00000740A1CFE3F99ADAFD148327C41783C5CD
:103E1000040066864E8582971C48FD171CC8DDB7D6
:103E2000FD1D8327C41783C50D0066864E853AC6DF
:103E300082971C488D463247FD171CC855B7FD14A4
:103E40008327C41783C5040066864E8582971C4865
:103E5000FD171CC8E3E59AFEB9BB1C4883C5F4FFF7
:103E60001389F4FFFD171CC8930750066382F502FF
:103E700093075004638EF5008327C41766864E852A
:103E800082971C4883C5E4FF1389E4FFFD171CC813
:103E90008327C41766864E858297CA840329040047
:103EA000137909016313090C238004001C401307D4
:103EB000004093F70760639EE7023386AB41639649
:103EC000AB05D68501464E85EF00907018402A8AD2
:103ED000AE8A9376270083270B00A9C61387470075
:103EE0002320EB009C4388C3CCC35C4485075CC49F
:103EF000E1B1E3080AFC0146A94693051C004E8582
:103F0000EF10A00233064541E2849307F41663E400
:103F1000F4009304E416976500009385E5FC26857C
:103F2000712245B7938647002320DB00118B844321
:103F300019CFAA8556860808EF50B007D2466247C7
:103F4000F2474246D4C098C490C0DCC479BF2A86E8
:103F5000AE86EF50806F09C50145992288C071B7C0
:103F60005285D685EFE0FFFBD5BF0149B1B139716C
:103F70003EDA2ED232D436D63AD842DC46DE9387A9
:103F8000C18022CC804326CA06CEAA8411C41C4C10
:103F900081E72285EF20E0130C4454102686228509
:103FA00036C6EF305032F2406244D2442161828002
:103FB000011126CA4AC806CE22CC4EC652C4AA84D3
:103FC0002E8909C51C4D99E3EF20A0109C4C80441C
:103FD00081E72685EF20E00F9767000093870703AE
:103FE000631DF402C0408357C400A18BB9C71C48AD
:103FF000A9C7FD59294A1C4483450900FD17A1EDB5
:104000001CC463D107082286A9452685EF0050739A
:10401000FD576309F50229453DA097670000938786
:10402000E7006314F40080447DBF97670000938726
:10403000E7FBE31AF4FAC0447DB7A2852685EF00BA
:10404000907C45D97D55F2406244D2444249B24900
:10405000224A056182801CC4050963D70700184CF9
:1040600063CBE700638945011C401387170018C024
:104070002380B70049B722862685EF00706CE31CC9
:1040800035F7C9B71C401387170018C0294723808C
:10409000E70051B79387C180AA8588436FF05FF12D
:1040A000976700009387C7E48843828035713ECBD1
:1040B000B707008093C7F7FF3ECE3EC8C17793870E
:1040C000872032C536C73AC942CD46CF3ECA93870C
:1040D000C1802AC42ACC884334012E862C0086DE77
:1040E00036C2EF30806FA24723800700F6500D6183
:1040F0008280AA87850703C7F7FF6DFF3385A74036
:104100007D158280011122CC2A872E843A85A285D2
:1041100032C606CEEF30801732462A88AE8805C6F2
:1041200051801374F47F9307B006818F635DF000B4
:10413000D2073707F03F01483E974286BA86EFE044
:10414000EFCF2A88AE88F24062444285C685056179
:10415000828035714AC92A89368532D436C606CF5F
:1041600022CD26CB4EC7EAD8EED62E8D52C556C3E9
:104170005AC1DEDEE2DCE6DA82C8EF205001AA8D09
:10418000084181440144EFF0DFF6B246AA89EAC64D
:1041900035469305B0021305D00213080002A54866
:1041A000B64703C70700636BE608637F17095DC75F
:1041B00002C8364A93070003814A03470A00631D79
:1041C000F71283471A00130780056388E700130678
:1041D0008007130700036397C710C2473688980803
:1041E000D408176600001306E6D6EC004A85EF20D7
:1041F000201193797500AA8A63880900994763980A
:10420000F906050AD2C602C8A25781C7B647225787
:104210001CC3C247A1CBB7050080A18DFA406A44F8
:1042200026854A49DA44BA492A4A9A4A0A4BF65B31
:10423000665CD65C465DB65D0D6182806309B70041
:104240006304A702E31607F78507BEC691BF02C83D
:1042500013871700BAC683C71700A1FFA257EAC683
:1042600002C8CDF7A2855DBF05473AC8D5B7464617
:1042700011CA93055003A808EF306025C6454A854A
:10428000EF20B01CFD19914763EE3701176700005E
:10429000130747C68A09BA9983A70900BA97828784
:1042A000E644764493FA8A00E3800AF6B707008072
:1042B0005D8C99BFF6453704F0FF7D14B3F7850098
:1042C0005644E644130434439315440133E4B700E1
:1042D000D1BF3704F07FF9B7B705008013C4F5FFED
:1042E000FD54C9B7B64793861700B6C683C71700F3
:1042F000E38AE7FE91DB854AB64C014A814B014CCB
:10430000A546A145A9473645034B050013070BFDFC
:104310001376F70F63FDC60483A50D004E86EF30BC
:10432000D0323DC1DA87E28D8146014B014513074A
:1043300050066387E7001307500481496399E71625
:1043400063960D00B3E7560191DB814D364D13079F
:10435000B00293071D00BEC683471D006382E70EAF
:104360001307D00201486393E70E0548D9A863C933
:104370008501B38BFB02BA9B0505050CAAC661B784
:10438000330AFA023A9ACDBF364581464E95AAC6FF
:1043900083470500630D0C06014BE28D138707FD73
:1043A00025466376E602054559B7B6478506138666
:1043B0001700B2C683C71700E389E7FE1387F7FC2F
:1043C0002146E36AE61EB64C368B814D81469387C3
:1043D00007FD1387160085C73A9B3385B6016E87A4
:1043E0002148C14829466317A702850DB69DA146FD
:1043F00063CFE6022947B38BEB020147BE9BB6476A
:1044000093861700B6C683C71700BA8641BF130745
:1044100000035DB7930517006346E800B38BCB023A
:104420002E87D1B7E3CEB8FE330ACA02D5BFC14644
:104430000147E3C6B6FDA946330ADA023E9AC1B780
:10444000014893072D00BEC683472D00138707FD43
:1044500025466367E60C130700036386E70A1387A4
:10446000F7FC214681496364E604B648138707FDDB
:104470002543294EB64713861700B2C683C71700D7
:10448000938507FD93F5F50F6376B30895693306B9
:1044900016419389F9E1A148CE8563C6C800BA895F
:1044A00063D3E500AE8963040800B3093041639823
:1044B0000D0CB3E6DA00E39906D4E31105DA13072D
:1044C000E004638AE7066340F70613079004E39766
:1044D000E7D8976500009385E5A6E800EF20C03196
:1044E000E30E05D6B647976500009385E5A5E8007D
:1044F000FD17BEC6EF20403001E5B6478507BEC6B2
:104500003704F07F11B3B64713861700B2C683C7CE
:104510001700A1B73307C703BA97138707FD99BFE1
:10452000EAC6814969B713079006E384E7FA1307DF
:10453000E006E395E7D297650000938565A1E80062
:10454000EF20802BE30C05D0B64703C70700930785
:1045500080026313F702B008976500009385C5A039
:10456000E800EF20602C95476318F500F645370406
:10457000F07FE6444D8C49B93704F8FF71B1B38A36
:10458000694163130C006E8CC1476E8D63D3B70114
:10459000414D5E85EF50601BA547AA842E8463DCE5
:1045A000B70393077DFF1397370097670000938742
:1045B00067ADBA979043D443EFE04F882A84528581
:1045C000AE84EF5080182A86AE862285A685EF300D
:1045D000D028AA842E84BD4763CDB709E3860AC2DA
:1045E000635450075947634357038E0A9767000087
:1045F000938747A9BE9A03A50A0083A54A00268689
:10460000A286EFE0AF83AA842E84FDBE130750027A
:104610003307B741634F5705B38DB74117690000A2
:10462000130949A693973D00CA978843CC43B38D9D
:10463000BA412686A2868E0DEFE04F80CA9D03A662
:104640000D0083A64D0075BFA95763C4FA02B309D4
:104650003B41139B3900976900009389A9A2DA991D
:1046600003A6090083A649002685A285EF40E01134
:1046700059BF338DAD41569D6357A0119377FD000F
:1046800099CF176700001307E79F8E07BA978843F3
:10469000CC432686A286EFD07FFAAA842E84137D8F
:1046A0000DFF63080D0A9307401363D5A705014B5F
:1046B000814902C6814B930720022320F900370469
:1046C000F07F8144B247E38107B4C6454A85EF20B5
:1046D000C057DE854A85EF204057CE854A85EF20BA
:1046E000C056B2454A85EF204056DA854A85EF200C
:1046F000C05519BE135D4D402685A2858147014AEC
:10470000054897680000938868956346A80599C393
:10471000AA842E84176700001307479493173A0062
:10472000BA978843CC433707B0FC22972686BA86CF
:10473000EFD0DFF03704F07FB377B4003707A07C09
:10474000AA84E366F7F63707907C637AF7027D1454
:10475000FD54014ADDA813771D0011CF13173A004D
:10476000469710435443EFD07FED8547054897683F
:1047700000009388A88E050A135D1D4079B73704A1
:1047800050032E94F9B7E3060DFC330DA041937747
:10479000FD0099CF176700001307C78E8E07BA97E1
:1047A0009043D4432685A285EF30307EAA842E84A0
:1047B000135D4D40E30F0DF8FD4763DDA701014B8D
:1047C000814902C6814B9307200281440144232082
:1047D000F900CDBD137A0D0163040A00130AA00687
:1047E0002685A285975700009387477901479376DE
:1047F0001D0081CA9043D4433EC6EFD03FE4B24788
:104800000547135D1D40A107E3130DFE19C3AA84DC
:104810002E8463050A029357440113F7F77F930729
:10482000B006998F635CF0007D476354F72213074D
:10483000400381446359F7203704700301468146E1
:104840002685A285EF40A04F3DD95E87EE86628621
:10485000E6854A85EF20204D2AC6E30A05E493D772
:10486000FA41B3093B41B3F7F9003ED056CE63D3CA
:104870000A0002CEB247014B8149B1073ED8B707C3
:104880001000FD173ED6B2474A85CC43EF202033B7
:10489000AA8BE30205E2B247C2553105904B0906E7
:1048A0000A06EF206026B808D4082286A6854A8525
:1048B00026CA22CCEF20302DAAC8E30E05DE85459E
:1048C0004A85EF20A05BAA89E30705DED64763C7C8
:1048D00007180257724C338DE7006647B38747418C
:1048E00093066003BA97FD17930D20C0998E63D687
:1048F000B7193387FD407D46998E6346E616854D90
:10490000B397ED003ED2814C369CB30DDD00529C36
:10491000EA8763D3AD01EE876353FC00E2876358F7
:10492000F000B38DFD40330CFC40330DFD40825749
:104930006358F002CE853E864A85EF20206AAA8918
:10494000E30B05D64646AA854A85EF20E0542ADACD
:10495000E30305D6C6454A85EF20202FD257BEC8AF
:10496000634FB011635A50017246DE854A85EF20CD
:10497000E066AA8BE30105D4635A8001DE85628676
:104980004A85EF208071AA8BE30705D2635AA00104
:10499000CE856A864A85EF204070AA89E30D05D04E
:1049A000C6455E864A85EF20407F2A8BE30505D009
:1049B000032CC500CE8523260500EF20E07A63593D
:1049C000050C336C9C0063110C129317C400639D9B
:1049D0000710B707F07FE18F3707B0066376F7104F
:1049E00083274B0191E703270B01854763DEE70E21
:1049F000DA8505464A85EF20406ACE852A8BEF206E
:104A0000A0766353A00E630C0A10B707F07FE18F06
:104A10003707B0066345F71037077003E355F7DA39
:104A20000147B70750392685A2853A86BE86EFD062
:104A3000FFC02E84C98DAA84E39905C8930720027C
:104A40002320F90059B181177D57B317F7007D8CEA
:104A5000F5B37D57B317F700FD8CCDB37247025DF8
:104A6000330CF7409DBD930C20BEB387FC40854CB2
:104A7000B39CFC0085473ED241BD814CE5BFC64595
:104A80006E864A85EF206061AAC8E31D05EC25B15A
:104A900069E9370710007D17B377E40063090C0458
:104AA0006399E7047D5763000A02B707F07FE18F3F
:104AB000B706A00663E9F600D1839306B006B38774
:104AC000F6403317F7006396E402B707F07FFD174F
:104AD0006315F400FD57E380F4BEB705F07FE18D68
:104AE000370410002E948144E31C0AF2F9BEC58FEE
:104AF00099DB63820C04B3FC8C00E3870CFE5286C6
:104B00002685A285630F0C02EFF0CFDF2A86AE86E2
:104B10005245E245EF306054AA842E84F1B7B705C0
:104B2000F07FE18D3704F0FFA295370410007D146B
:104B30004D8CFD5455BF9257B3FD9700E3860DFA97
:104B40007DBFEFF02FDC2A86AE865245E245EF406E
:104B5000E03B01468146AA842E84EF40401E49F581
:104B60009DB1CE855A85EF20500F9757000093874F
:104B7000E73A9043D4432A8DAE8DEF40C02D634277
:104B8000A01063010C0A814D370DF03F0147B707B4
:104B9000F03FB706F07FB37CD400B706E07F639F99
:104BA000DC166AD2370DB0FC229D2685EA853EDEF2
:104BB0003ADC6EDAEF20806DD25812582A86AE8623
:104BC0004685C285EFD09FA72686EA86EF30E0486B
:104BD000AA843705F07F3376B500B706A07C62570C
:104BE000F2576365D60C62479307F5FF6396E700BB
:104BF0005247FD57E381E7ACB707F07F1384F7FF17
:104C0000FD54C6454A85EF204004DE854A85EF20E5
:104C1000C003CE854A85EF204003DA854A85EF2020
:104C2000C00295B1B1E0B257E18FA1E797570000FC
:104C30009387472E9043D4436A85EE85EF40A021A9
:104C4000634D0502975700009387472C9043D44348
:104C50006A85EE85EFD09F9E2A87AE87370D00804C
:104C6000BA8D334DFD0035B785476394F400E30CEE
:104C700004B4814D370DF0BF11BF0147B707E03FC6
:104C8000F1BF97570000938767289043D4436A8504
:104C9000EE85EFD0BF9A2A87AE872E8D63160C0063
:104CA000370D0080334DBD00AA8DE5B537045003A4
:104CB0002E94E3180AF4B706F07FE18EE393DCF458
:104CC000BE853A853A8DBE8CEF40F01BEFD05FE297
:104CD0002A86AE866A85E685EF404023B2572A8D44
:104CE000AE8DE18FC58F33EC8701630B0C0A9757AC
:104CF00000009387A7239043D443EF40C015E346B9
:104D0000059C975700009387E7229043D4436A8518
:104D1000EE85EF406009E356A0EE45BA630D0A0444
:104D2000B706A00663E99605975600009386861F8E
:104D30009042D4423A85BE853ADA3ED2EF40A01185
:104D4000925752576344A0023A85BE85EF40301A0D
:104D500011E10545EF40701F2A87AE872E8D63163F
:104D60000C00370D0080334DBD00AA8DB705B0068D
:104D70002E9D330D9D415245E2453EDA3AD2EF2059
:104D8000E0502A86AE866E85EA85EFD03F8B52468C
:104D9000E246EF30802CAA842E84D257125711BFDE
:104DA00097570000938787199043D443EF40A00A98
:104DB000E35905E419BA130750066387E7001307A0
:104DC000500405456397E7EE014B05456FF08FD71B
:104DD0009387C1809C43945389E697B6FF1F9386BF
:104DE000662A6FF00FB779714AD04ECE06D622D41C
:104DF00026D2AA892E899304190003C4F4FF3A85A8
:104E000036C632C42EC23AC0EF10103822958347FE
:104E1000150002479245A18B2246B246C9E7930787
:104E2000D0026314F40883C70400054393042900E7
:104E3000FDC641476392E60213070003639EE70045
:104E400083C704001307800593F7F70D6394E70CFD
:104E500083C71400C1468904B708008063140300A7
:104E600093C8F8FF33FFD80201480145A54FE54E2E
:104E7000FD5233DED802138707FD63E4EF04BA87DF
:104E800063DFD704630D58007D58636AAE00631476
:104E9000AE006346FF0005483385A6023E958504B3
:104EA00083C7F4FFC9BF2689B9B79307B00263056A
:104EB000F400A2870143ADBF83C704009304290017
:104EC000D5BF1387F7FB63E5EE00938797FC4DBFD3
:104ED0001387F7F963E5EE00938797FA55B7FD5707
:104EE000631FF8009307200223A0F900468519EEFE
:104EF000B250225492540259F249456182806304AF
:104F000003003305A0406DD6630408009385F4FFC9
:104F10000CC2F9BF93070003A1F2A14635BF1307E6
:104F20000003E38FE7F0A94605BF9387C1809C4348
:104F3000985309E717B7FF1F1307C7146FF0BFEAAD
:104F4000011122CC26CA4AC806CE4EC6AA842E8992
:104F5000328409C51C4D99E3EF10A0179757000044
:104F60009387C70A631BF406C0401C4C1CC48357BC
:104F7000C400A18BD9C31C48C9C31C4808409379FD
:104F8000F90F1379F90F1D8D5C486347F500A28571
:104F90002685EF10E00135E51C440505FD171CC40E
:104FA0001C401387170018C0238037015C486389B1
:104FB000A7008357C400858B89CBA9476317F900E5
:104FC000A2852685EF00D07E0DEDF24062444A8531
:104FD000D2444249B24905618280975700009387C5
:104FE000E7046314F400804449B79757000093879F
:104FF000E7FFE31CF4F6C0448DBFA285268521207F
:105000002DDD7D59D9B741119387C18026C28443D4
:1050100022C44AC006C62A892E8491C49C4C81E7CA
:105020002685EF10000B97570000938727FE631C1F
:10503000F402C0400317C40093170701C18393F61D
:105040008700BDEE93F607019DEEA5472320F900EA
:10505000136707042316E4007D55B24022449244AE
:1050600002494101828097570000938727FC63140F
:10507000F4008044C1B797570000938727F7E31BDC
:10508000F4FAC04445BF918B95C74C5891C993071A
:1050900044046385F5004A85EF20804D232A0402ED
:1050A0008357C4002322040093F7B7FD2316F400AE
:1050B0001C481CC08357C40093E787002316F400E4
:1050C0001C4889EF8357C4001307002093F7072873
:1050D0006386E700A2854A85EF10F0128357C4006B
:1050E00013F7170005C75C4823240400B307F040FA
:1050F0001CCC1C480145B5F38317C40013F70708FF
:1051000029DF93E707042316F400B9B7898B014719
:1051100091E3584818C4F1BF011122CC1C498049C1
:1051200006CE26CA4AC84EC652C456C263C18712AA
:105130007D141318240093894501338A090113094A
:1051400045014A9883270A00032708008507B354BE
:10515000F7026366F706C1684E834A8E814E014F9F
:10516000FD1811030326C3FF110E33771601418288
:105170003307970233069602769793560701B37763
:105180001701B307FF4036968326CEFF935E0601D4
:105190003376160133F71601BA97C18213D7074148
:1051A000918EBA9613DF0641B3F71701C206D58F69
:1051B000232EFEFEE3776AFA83270800BDCBAA8A76
:1051C000EF10907A6349050441668504CA8501455C
:1051D0007D16910903A8C9FF98419105B376C800CF
:1051E000158DB376C700AA96935707011358080187
:1051F00013D70641B3870741BA9713D50741F18EFC
:10520000C207D58F23AEF5FEE3753AFD9317240050
:10521000CA9798431DC72685F2406244D24442494A
:10522000B249224A924A056182808327080089E7B1
:105230007D147118E36B09FF00C951B7984309E762
:105240007D14F117E36CF9FE23A88A00E9B7014544
:10525000E1B775713ED85C5122C526C34AC1CEDE86
:10526000D2DCE2D406C7D6DADAD8DED6E6D2EAD085
:10527000EECE36C23AC646CAAA842E843289C28984
:105280002E8A328C89EF4145EF101002C8D02322BC
:105290000500232405002320050023260500DC50FB
:1052A0008C4389CDD84385472685B397E7009CC5B5
:1052B000D8C1EF109019DC5023A0070063530904F4
:1052C0008547131C190023A0F900135C1C00B707C5
:1052D000F07F3377FC006314F70642578967320C7E
:1052E0009387F770135CCC001CC3336C8C00E30510
:1052F0000C32D24791EB975700009387E7CE3EC020
:1053000039A823A00900E1B7975700009387C7CDBC
:105310003EC097570000938757CD52471CC3BA40F1
:105320002A4402459A440A49F659665AD65A465BB7
:10533000B65B265C965C065DF64D4961828001464F
:1053400081462285E28522CE62D4EF30501F05E1EE
:10535000425785471CC397570000938727B63EC026
:10536000D247D5DF97570000938757B57DB7B80070
:10537000F4006286A285268513594C01EF20A00017
:105380001379F97FAA89A64A630D0910A2577245BD
:10539000130919C09395C700B181B707F03FDD8DA0
:1053A00002DC975700009387E7BF9043D443EF3068
:1053B000F03597570000938767BF9043D443EFD0F1
:1053C000EFA7975700009387E7BE9043D443EF20A1
:1053D000D0482A8B4A85AE8BEFD08FF197570000CB
:1053E0009387C7BD9043D443EFD04FA52A86AE869E
:1053F0005A85DE85EF2070462A8BAE8BEF40A028C1
:105400002A84014681465A85DE85EF30D024635BCD
:1054100005002285EFD0CFED5A86DE86EF303012C0
:1054200011C17D140547D9473AD663E387021317A4
:105430003400975700009387E7C4BA979043D4434A
:105440007245A255EF303021635305007D1402D61A
:1054500033892A41930BF9FF014B63D60B00054BAF
:10546000330B2B41814B634E0406A29B22CC814A15
:105470001247A54763E5E7149547854C63D6E700D7
:105480009307C7FF3EC2814C12478D47630EF7104A
:1054900063CFE704894702C8630DF70685473EC816
:1054A0008DA036499307000256991307294363D507
:1054B000E70213050004198D930729413315AC0049
:1054C0003354F400418DEF404028B70710FEBE95DD
:1054D00085477D193EDCF1B53385E7403315A400DF
:1054E000DDB7330B8B40B30A804002CC51B7124773
:1054F0009147630EF70005473AC812479547630680
:10550000F70AFD573EC4FD5DC94702C619A8854785
:105510003EC8B2476348F00A854705473EC4854DFB
:105520003AC603A944021147232209009306470102
:105530008325490063FCD7082685EF104068DC50BE
:105540002320A9009C433EC0B94763E6B71D63848E
:105550000C1C635E800A9377F40013973700935C0A
:105560004440975700009387E7B1BA9793F60C0130
:1055700098430949DC4385C697560000938606AEDA
:1055800090527245D452A2553AD03ED2EF30E01F2D
:105590000257925793FCFC002A8A2E8C0D49175D06
:1055A0000000130DADAB89A802C8B247A2973EC454
:1055B000938D1700EE87E346B0F785479DB7854C7E
:1055C00002C2E9BDB2473EC4BE8DA1BF85052322FC
:1055D000B9000607A1BF93F61C0081CE03260D007B
:1055E00083264D003A85BE85EFD04F8505092A8771
:1055F000AE8793DC1C40210DE39F0CFC3A86BE86EF
:105600005285E285EF3060182A8A2E8C81A00949E4
:1056100015CCB30C804093F7FC00139737009757D5
:105620000000938727A6BA979043D4437245A255AA
:1056300093DC4C40175D0000130D4DA2EFD00F809E
:105640002A8A2E8C8147639C0C12DDFFB257638738
:105650000714175700001307E78B10435443528574
:10566000E28552D0EF30207F635A0512638B0D1212
:10567000A2476350F00A175700001307A7948257F8
:10568000104354433E85E285EFC05FFBA247130DF4
:10569000F4FF2A8A2E8C050962874A853EDE52DA9B
:1056A000BA8C3AD0EFD0CFC4525802573709C0FC59
:1056B0004286BA86EFC09FF89756000093860691FF
:1056C0009042D442528CEF205019F2572A8A2E99D8
:1056D000E1EF975700009387E78F525802579043A6
:1056E000D4434285BA85EF3070025286CA862A8C2E
:1056F000AE8CEF30606B634AA054B7070080B3C72D
:1057000027015286BE866285E685EF30C074634B02
:105710000552724A225CB64763C707303947634473
:10572000873013173400975700009387A795BA97CF
:1057300003AB070083AB4700B24763D20720634047
:10574000B02163910D50975700009387A78890432D
:10575000D4435A85DE85EFC07FEE5286E286EF3075
:10576000A064814A01496357054A824702470504FC
:10577000138A1700930710032300F70045A113F7BE
:105780001C0009CB03260D0083264D000509EFC040
:10579000FFEA854793DC1C40210D75B5228DEE870D
:1057A000E5BD228D8147CDBD9386F7FF1396360068
:1057B000975600009386068DB2968842CC42824668
:1057C000B6973EDAC247E9C397470000938707744C
:1057D0002A86AE868843CC434ADE52D0EF20F07A48
:1057E00002587257174900001309C97D4286BA86CC
:1057F000EF30C071024A2AD02ED2E6856285EF30A2
:1058000090682ADEEFD0CFAE2A86AE866285E68526
:10581000EF30C06FF2572A8CAE8C2A86AE860255C6
:105820009255050A93870703A30FFAFEEF30C0577E
:105830006348A00E974700009387C76D8843CC4309
:105840006286E686EF30806C2A86AE8602559255D7
:10585000EF3080556342A018D257E30CFAEA0326D2
:1058600009008326490002559255EFC03FDD03260B
:105870000900832649002AD02ED26285E685EFC032
:10588000FFDB2A8CAE8C95BF5286CA86EFC01FDB29
:10589000525A02492AD02ED2E6856285EF30B05E98
:1058A0002ADEEFD0EFA42A86AE866285E685EF3049
:1058B000E0657257D257050913070703A30FE9FEE6
:1058C0002A8CAE8C6312F90617490000130909648B
:1058D000032609008326490002559255EF20E07700
:1058E0002A86AE866285E685EF30004C6346A00EC0
:1058F000025692560325090083254900EF300061C6
:105900002A86AE866285E685EF30E0549307000371
:10591000E35105E00347FAFF9306FAFF6304F7003B
:105920006A8459A8368AFDB797470000938787692C
:105930009043D443EFC09FD02A8CAE8CB1BFE28796
:10594000BE8C8247528C974A0000938AAA671389BB
:105950001700BE9D5A86DE866285E685EF20F062DE
:10596000EF3070522A8DEFD0AF985A86DE86EFC0A6
:10597000FFCC2A86AE866285E685EF3020599307F4
:105980000D03A30FF9FE2A86AE864A8A639E2D0771
:10599000EF20A06C5A86DE862A8CAE8CEF30C04099
:1059A000634BA0025A86DE866285E685EF30203999
:1059B00001E593771D0085E3CE852685EF10E0286D
:1059C000C25723000A00050480C3D247E389079425
:1059D00023A04701A9B2228D130790038346FAFF43
:1059E0009307FAFF639AE6008246639DF600130769
:1059F0000003050D2380E60003C707000507238089
:105A0000E70039BF3E8AD9BF03A60A0083A64A0031
:105A10000509EFC0BFC2014681462A8CAE8CEF302B
:105A200000320DF951BF4247630007109246054707
:105A30006345D70C62579387374309E72647930797
:105A40006003998F568DDA8C854526853E9BBE9BDB
:105A5000EF10C0422A89635E9001635C7001E687A3
:105A600063D39B01DE87330BFB40B38CFC40B38BCD
:105A7000FB4063800A04C247C5CF6354A003CA85B4
:105A80006A862685EF1080554E86AA852A89268546
:105A9000EF1080402ACECE852685EF10001BF247FE
:105AA000BE893386AA4111C6CE852685EF100053E4
:105AB000AA8985452685EF10603CE247AA8A635B88
:105AC000F0063E86AA852685EF104051124785478D
:105AD000AA8A014D63C8E706014D63120A069317AF
